{
  "_format": "hh-sol-artifact-1",
  "contractName": "New",
  "sourceName": "contracts/New.sol",
  "abi": [
    {
      "inputs": [
        {
          "internalType": "bytes32",
          "name": "",
          "type": "bytes32"
        },
        {
          "internalType": "address",
          "name": "",
          "type": "address"
        }
      ],
      "name": "accessControl",
      "outputs": [
        {
          "internalType": "bool",
          "name": "",
          "type": "bool"
        }
      ],
      "stateMutability": "view",
      "type": "function"
    },
    {
      "inputs": [
        {
          "internalType": "bytes32",
          "name": "_hash",
          "type": "bytes32"
        }
      ],
      "name": "add",
      "outputs": [],
      "stateMutability": "nonpayable",
      "type": "function"
    },
    {
      "inputs": [
        {
          "internalType": "address",
          "name": "_user",
          "type": "address"
        },
        {
          "internalType": "bytes32",
          "name": "_hash",
          "type": "bytes32"
        }
      ],
      "name": "allow",
      "outputs": [],
      "stateMutability": "nonpayable",
      "type": "function"
    },
    {
      "inputs": [
        {
          "internalType": "address",
          "name": "_user",
          "type": "address"
        },
        {
          "internalType": "bytes32",
          "name": "_hash",
          "type": "bytes32"
        }
      ],
      "name": "disallow",
      "outputs": [],
      "stateMutability": "nonpayable",
      "type": "function"
    },
    {
      "inputs": [],
      "name": "display",
      "outputs": [
        {
          "internalType": "bytes32[]",
          "name": "",
          "type": "bytes32[]"
        }
      ],
      "stateMutability": "view",
      "type": "function"
    },
    {
      "inputs": [
        {
          "internalType": "address",
          "name": "",
          "type": "address"
        },
        {
          "internalType": "uint256",
          "name": "",
          "type": "uint256"
        }
      ],
      "name": "fileOwners",
      "outputs": [
        {
          "internalType": "bytes32",
          "name": "",
          "type": "bytes32"
        }
      ],
      "stateMutability": "view",
      "type": "function"
    },
    {
      "inputs": [],
      "name": "getSharedFiles",
      "outputs": [
        {
          "internalType": "bytes32[]",
          "name": "",
          "type": "bytes32[]"
        }
      ],
      "stateMutability": "view",
      "type": "function"
    }
  ],
  "bytecode": "0x608060405234801561001057600080fd5b50610c60806100206000396000f3fe608060405234801561001057600080fd5b506004361061007d5760003560e01c8063446bffba1161005b578063446bffba146101005780635790966e1461011c578063914e314414610138578063aab19db4146101565761007d565b80630c1b7c1e1461008257806320f2bf00146100a057806332e1a50e146100d0575b600080fd5b61008a610172565b6040516100979190610848565b60405180910390f35b6100ba60048036038101906100b591906108f9565b610206565b6040516100c79190610954565b60405180910390f35b6100ea60048036038101906100e591906109a5565b610235565b6040516100f791906109f4565b60405180910390f35b61011a60048036038101906101159190610a0f565b610266565b005b61013660048036038101906101319190610a3c565b6102ce565b005b61014061040c565b60405161014d9190610848565b60405180910390f35b610170600480360381019061016b9190610a3c565b6104a1565b005b60606000803373ffffffffffffffffffffffffffffffffffffffff1673ffffffffffffffffffffffffffffffffffffffff1681526020019081526020016000208054806020026020016040519081016040528092919081815260200182805480156101fc57602002820191906000526020600020905b8154815260200190600101908083116101e8575b5050505050905090565b60016020528160005260406000206020528060005260406000206000915091509054906101000a900460ff1681565b6000602052816000526040600020818154811061025157600080fd5b90600052602060002001600091509150505481565b6000803373ffffffffffffffffffffffffffffffffffffffff1673ffffffffffffffffffffffffffffffffffffffff16815260200190815260200160002081908060018154018082558091505060019003906000526020600020016000909190919091505550565b6102d833826105bc565b610317576040517f08c379a000000000000000000000000000000000000000000000000000000000815260040161030e90610ad9565b60405180910390fd5b60006001600083815260200190815260200160002060008473ffffffffffffffffffffffffffffffffffffffff1673ffffffffffffffffffffffffffffffffffffffff16815260200190815260200160002060006101000a81548160ff021916908315150217905550600061038c8383610698565b14610408576000600260008473ffffffffffffffffffffffffffffffffffffffff1673ffffffffffffffffffffffffffffffffffffffff16815260200190815260200160002060016103de8585610698565b6103e89190610b28565b815481106103f9576103f8610b5c565b5b90600052602060002001819055505b5050565b6060600260003373ffffffffffffffffffffffffffffffffffffffff1673ffffffffffffffffffffffffffffffffffffffff16815260200190815260200160002080548060200260200160405190810160405280929190818152602001828054801561049757602002820191906000526020600020905b815481526020019060010190808311610483575b5050505050905090565b6104ab33826105bc565b6104ea576040517f08c379a00000000000000000000000000000000000000000000000000000000081526004016104e190610ad9565b60405180910390fd5b600180600083815260200190815260200160002060008473ffffffffffffffffffffffffffffffffffffffff1673ffffffffffffffffffffffffffffffffffffffff16815260200190815260200160002060006101000a81548160ff021916908315150217905550600260008373ffffffffffffffffffffffffffffffffffffffff1673ffffffffffffffffffffffffffffffffffffffff1681526020019081526020016000208190806001815401808255809150506001900390600052602060002001600090919091909150555050565b600080600090505b6000803373ffffffffffffffffffffffffffffffffffffffff1673ffffffffffffffffffffffffffffffffffffffff1681526020019081526020016000208054905081101561068c57826000808673ffffffffffffffffffffffffffffffffffffffff1673ffffffffffffffffffffffffffffffffffffffff168152602001908152602001600020828154811061065e5761065d610b5c565b5b90600052602060002001541415610679576001915050610692565b808061068490610b8b565b9150506105c4565b50600090505b92915050565b600080600090505b6000803373ffffffffffffffffffffffffffffffffffffffff1673ffffffffffffffffffffffffffffffffffffffff168152602001908152602001600020805490508110156107745782600260008673ffffffffffffffffffffffffffffffffffffffff1673ffffffffffffffffffffffffffffffffffffffff168152602001908152602001600020828154811061073b5761073a610b5c565b5b90600052602060002001541415610761576001816107599190610bd4565b91505061077a565b808061076c90610b8b565b9150506106a0565b50600090505b92915050565b600081519050919050565b600082825260208201905092915050565b6000819050602082019050919050565b6000819050919050565b6107bf816107ac565b82525050565b60006107d183836107b6565b60208301905092915050565b6000602082019050919050565b60006107f582610780565b6107ff818561078b565b935061080a8361079c565b8060005b8381101561083b57815161082288826107c5565b975061082d836107dd565b92505060018101905061080e565b5085935050505092915050565b6000602082019050818103600083015261086281846107ea565b905092915050565b600080fd5b610878816107ac565b811461088357600080fd5b50565b6000813590506108958161086f565b92915050565b600073ffffffffffffffffffffffffffffffffffffffff82169050919050565b60006108c68261089b565b9050919050565b6108d6816108bb565b81146108e157600080fd5b50565b6000813590506108f3816108cd565b92915050565b600080604083850312156109105761090f61086a565b5b600061091e85828601610886565b925050602061092f858286016108e4565b9150509250929050565b60008115159050919050565b61094e81610939565b82525050565b60006020820190506109696000830184610945565b92915050565b6000819050919050565b6109828161096f565b811461098d57600080fd5b50565b60008135905061099f81610979565b92915050565b600080604083850312156109bc576109bb61086a565b5b60006109ca858286016108e4565b92505060206109db85828601610990565b9150509250929050565b6109ee816107ac565b82525050565b6000602082019050610a0960008301846109e5565b92915050565b600060208284031215610a2557610a2461086a565b5b6000610a3384828501610886565b91505092915050565b60008060408385031215610a5357610a5261086a565b5b6000610a61858286016108e4565b9250506020610a7285828601610886565b9150509250929050565b600082825260208201905092915050565b7f596f7520646f6e27742068617665206163636573730000000000000000000000600082015250565b6000610ac3601583610a7c565b9150610ace82610a8d565b602082019050919050565b60006020820190508181036000830152610af281610ab6565b9050919050565b7f4e487b7100000000000000000000000000000000000000000000000000000000600052601160045260246000fd5b6000610b338261096f565b9150610b3e8361096f565b925082821015610b5157610b50610af9565b5b828203905092915050565b7f4e487b7100000000000000000000000000000000000000000000000000000000600052603260045260246000fd5b6000610b968261096f565b91507fffffffffffffffffffffffffffffffffffffffffffffffffffffffffffffffff821415610bc957610bc8610af9565b5b600182019050919050565b6000610bdf8261096f565b9150610bea8361096f565b9250827fffffffffffffffffffffffffffffffffffffffffffffffffffffffffffffffff03821115610c1f57610c1e610af9565b5b82820190509291505056fea26469706673582212204c710b52ae2b9c2d196facb9bb37c597afa967b8374ac458bcdf02379dd72a9b64736f6c63430008090033",
  "linkReferences": {},
  "deployedLinkReferences": {}
}